:020000040800F2
:1000000000500020F9020008010300080503000861
:10001000490300084D0300086503000800000000C4
:100020000000000000000000000000007D03000848
:10003000810300080000000085030008590E000835
:100040009903000899030008990300089903000820
:100050009903000899030008990300089903000810
:100060009903000899030008990300089903000800
:1000700099030008990300089903000899030008F0
:1000800099030008990300089903000899030008E0
:1000900099030008990300089903000899030008D0
:1000A00099030008990300089903000899030008C0
:1000B00099030008990300089903000899030008B0
:1000C00099030008990300089903000899030008A0
:1000D0009903000899030008990300089903000890
:1000E0009903000899030008990300089903000880
:1000F0009903000899030008990300089903000870
:10010000990300089903000899030008990300085F
:10011000990300089903000899030008990300084F
:10012000990300089903000899030008990300083F
:1001300000000000000000000000000000000000BF
:1001400000000000000000000000000000000000AF
:10015000000000000000000000000000000000009F
:10016000000000000000000000000000000000008F
:10017000000000000000000000000000000000007F
:10018000000000000000000000000000000000006F
:10019000000000000000000000000000000000005F
:1001A000000000000000000000000000000000004F
:1001B000000000000000000000000000000000003F
:1001C000000000000000000000000000000000002F
:1001D000000000000000000000000000000000001F
:1001E0005FF8E0F100B583B000F080FC304B314A9D
:1001F0001360314A1360314B314A03E011681960D2
:10020000043304322F498B42F8D32A4B1A682E4B01
:100210009A4204D1284B1A682C4B9A4200D0FEE730
:10022000234B2B4A13602B4A13602B4B02E0002216
:100230001A600433294A9342F9D3254B1B6813B93A
:10024000244B1B6803B1FEE700F05CFC694601A883
:1002500000F096FA224C234B1C1BA410002504E04E
:100260001F4B53F8253098470135AC42F8DC1E4C43
:100270001E4B1C1BA410002504E01B4B53F825301B
:1002800098470135AC42F8DC0099019800F0E8FD90
:100290000546174C174B1C1BA41004E0013C144BE3
:1002A00053F824309847002CF8DC284600F004FA74
:1002B000BABADECA00000020800000200000002042
:1002C000C81B0008840000207856341232547698F7
:1002D00084000020C001002084000020C401002010
:1002E000C4030008C4030008C4030008C4030008D2
:1002F000C4030008C403000808B5FFF773FF00BF7C
:1003000000BEFEE71EF0040F0CBFEFF30880EFF312
:10031000098071461D4A104708B50A4B1B6B13F044
:10032000020F0DD0074BDB6A002B09DA4BF6AB61ED
:1003300000F0ECFB20B14FF00042024BDA6208BD46
:1003400000BEFEE700ED00E000BEFEE71EF0040F79
:100350000CBFEFF30880EFF3098071460C4A104799
:1003600000BEFEE71EF0040F0CBFEFF30880EFF3B2
:1003700009807146074A104700BEFEE700BEFEE74F
:1003800000BEFEE700BEFEE770470000190300084C
:0C039000610300087903000800BEFEE7CE
:10039C00C81B00080000002084000020C81B0008B7
:1003AC00000000000000000084000020C4010020B8
:0803BC00000000000000000039
:1003C400F8B505460C46464B98421BD003F58063AE
:1003D400984217D003F58063984213D003F58063E5
:1003E40098420FD003F5806398420BD003F58063E5
:1003F400984207D003F58063984203D0B22139486C
:1004040000F06EFBE3788BB1042B0FD0282B0DD0BA
:10041400482B0BD0142B09D0102B07D01C2B05D044
:10042400182B03D0B3212F4800F05AFB23881BB9A3
:10043400B4212C4800F054FBE37803F00F06304657
:1004440013F0100F0AD0A378013BDBB2022B03D9BF
:10045400BB21244800F044FBA07830432378E3B167
:100464002E68002316E001229A40218832EA010115
:100474000FD199000F278F4026EA070600FA01F1F1
:100484000E43E178282901D16A6102E0482900D1AC
:100494002A610133072BE6D92E602388FF2B1ED94E
:1004A4006E68002318E003F1080101228A402188C4
:1004B40032EA01010FD199000F278F4026EA07067F
:1004C40000FA01F10E43E178282900D16A61E1784C
:1004D400482900D12A610133072BE4D96E60F8BDA5
:1004E40000080140B419000838B504460D46144B01
:1004F40098421CD003F58063984218D003F58063BA
:10050400984214D003F58063984210D003F58063B9
:1005140098420CD003F58063984208D003F58063B9
:10052400984204D040F26911064800F0D9FA25B97E
:100534004FF4B571034800F0D3FA256138BD00BF0C
:1005440000080140B419000838B504460D46144BA0
:1005540098421CD003F58063984218D003F5806359
:10056400984214D003F58063984210D003F5806359
:1005740098420CD003F58063984208D003F5806359
:10058400984204D040F27911064800F0A9FA25B93E
:100594004FF4BD71034800F0A3FA656138BD00BF94
:1005A40000080140B419000838B504460D460E4B46
:1005B400034003B920B940F24A410C4800F090FAD4
:1005C400012D04D940F24B41084800F089FA25B1C5
:1005D400074A93691C43946138BD054A936923EA29
:1005E4000404946138BD00BF0200C0FFE81900088C
:1005F4000010024008B5012000F05CF808B50D4B6E
:100604001B6813B90C4A0B4B1A600A4B1A68C31CBB
:1006140023F00303134409498B4206D900F05EFC1E
:100624000C2303604FF0FF3008BD02490B601046F5
:1006340008BD00BF88000020C4010020004C002039
:1006440030B50025132420462946ABBE0446204677
:1006540030BD00BF38B5044600F040FC0546FFF746
:10066400EFFF2860204638BDB0F1FF3F03D108B545
:10067400FFF7F0FF08BD704710B504460B4B186830
:1006840018B1836B0BB900F06FFC132C09D8084B1D
:1006940053F83430B3F1FF3F05D0054800EBC400F4
:1006A40010BD002010BD002010BD00BF7C00002044
:1006B4001001002000B508B9044D00E0044D1824D1
:1006C40020462946ABBE0446FEE700BF26000200D2
:1006D400230002002DE9F04184B0234F0197032643
:1006E400039600230293012401AD20462946ABBEA4
:1006F40080461E4BC3F8008001970396042302939F
:1007040020462946ABBE8046194BC3F800800197AA
:1007140003960823029320462946ABBE0446154B94
:100724001C60B4F1FF3F03D1114B1A68114B1A60DE
:10073400002305E04FF0FF310F4A42F83310013334
:10074400132BF7DD0C4B094A12681A6000225A6019
:10075400074909689960DA600649096819615A61AC
:1007640004B0BDE8F08100BF181A00089000002012
:100774008C000020BC00002010010020F0B583B0E4
:1007840006460D46304B00934F2301936F461524C4
:1007940020463946ABBE0446002C42D12A4B83F88E
:1007A4004F40009A2746214636E0E1B927480068C1
:1007B400184490F90100002803DB092B03D1012020
:1007C40002E0012000E0002028BB082C2ADC222BB8
:1007D40001D0272B01D101321F461D4B43F82420A1
:1007E4000134012117E02FB19F4214D1002111706F
:1007F4000F4610E015480068184490F901000028DD
:1008040003DB092B03D1012302E0012300E00023D1
:100814000BB100211170013292F90030002BC4D1C8
:1008240000E000242CB9084B00221A70084A136017
:100834000134074B002243F8242034602B60FFF777
:1008440049FF03B0F0BD00BFC00000201800002025
:100854009400002030B585B001900291039201AD5F
:10086400062420462946ABBE04462046FFF7FCFE7C
:1008740005B030BD70B50E461546FFF7FDFE30B924
:1008840000F02CFB092303604FF0FF3070BD0446D9
:100894002A4631460068FFF7DDFFB0F1FF3F03D081
:1008A400281A63680344636070BD00BFF0B583B069
:1008B4000C461546FFF7E0FE30B900F00FFB0923A4
:1008C40003604FF0FF304DE00646022D06D900F0DC
:1008D40005FB162303604FF0FF3043E0012D13D1D5
:1008E4004368E4180FD500F0F9FA1623036073681F
:1008F400002B2CDD002C2DDD00F0F0FA8B2303609F
:100904004FF0FF302EE00025022D0FD1336802AFE7
:1009140047F8083D0C2528463946ABBE054628460F
:10092400FFF7A2FEB0F1FF3F17D0044433680093F1
:1009340001946F460A2528463946ABBE054628462B
:10094400FFF792FE00280BDB746020460AE04FF0AC
:10095400FF3007E04FF0FF3004E04FF0FF3001E0DC
:100964004FF0FF3003B0F0BD08B5FFF79FFF08BD9F
:1009740030B585B001900291039201AD0524204663
:100984002946ABBE04462046FFF76EFE05B030BDD7
:1009940070B50E461446FFF76FFE30B900F09EFAAC
:1009A400092303604FF0FF3070BD054622463146EF
:1009B4000068FFF7DDFF021E09DBA01A6B68034421
:1009C4006B60944205D10020FFF744FE70BD4FF0E8
:1009D400FF3070BD30B583B002AD45F8040D02247C
:1009E40020462946ABBE04462046FFF73DFE03B031
:1009F40030BD00BF38B50446FFF73EFE30B900F005
:100A04006DFA092303604FF0FF3038BD0546013C01
:100A1400012C09D8094B9A681B699A4204D14FF0FA
:100A2400FF330360002038BD2868FFF7D3FF18B9EF
:100A34004FF0FF322A6038BD38BD00BF10010020DE
:100A440070B50C46FFF718FE30B900F047FA0923D9
:100A540003604FF0FF3070BD0646636843F40053F3
:100A640063604FF48063E3620C2528463146ABBED5
:100A740005462846FFF7F8FDB0F1FF3F02D020619C
:100A8400002070BD4FF0FF3070BD00BF38B5054683
:100A94000C463C220021204600F04CFB214628460F
:100AA400FFF7CEFF38BD00BF38B5FFF7E5FD28B925
:100AB40000F014FA09230360002038BD0546092418
:100AC40020462946ABBE0446012C07D000F006FAA6
:100AD4000446FFF7B5FD2060002038BD012038BD75
:100AE40008B5FFF787FD00BF08B500F0F3F8024B27
:100AF400024A9A6008BD00BF00ED00E00000000853
:100B040008B500F00FF908BD38B583691B888B421E
:100B14006FD1044603684568013B302B6BD8DFE88E
:100B240003F0421D63635A2C2F2919196A191919E4
:100B340019193219206A19236A356A6A6A6A6A6A53
:100B44006A6A6A6A6A6A6A6A6A6A6A6A6A6A6A6A01
:100B54006A1919004FF0FF33036045E00023036076
:100B640042E0002303603FE000232B606B60AB6036
:100B7400EB6039E00023036036E0AB68036033E0E8
:100B84000023036030E0002303602DE0BFF34F8FA8
:100B94001A49CA6802F4E062194B1343CB60BFF3ED
:100BA4004F8F00BFFDE71749286800F0DEFB70B9DE
:100BB4006B6813B90123236016E0042B02D10223CE
:100BC400236011E0082B02D1032323600CE04FF0D3
:100BD400FF33236008E02B68023B012B02D800237B
:100BE400036001E0AB680360A3690233A3610120E1
:100BF40038BD002038BD002038BD00BF00ED00E046
:100C04000400FA05181A000882B000230193009327
:100C14002C4A136843F4803313602A4B1B6803F493
:100C240000330093019B01330193009B1BB9019B8B
:100C3400B3F5A06FF1D1234B1B6813F4003F02D02E
:100C44000123009301E000230093009B012B36D184
:100C54001D4B1A6842F010021A601A6822F003024F
:100C64001A601A6842F002021A60A3F580535A68A7
:100C74005A605A685A605A6842F480625A605A68E4
:100C840022F47C125A605A6842F4E8125A601A68D4
:100C940042F080721A600B4B1B6813F0007FFAD08D
:100CA400084B5A6822F003025A605A6842F0020262
:100CB4005A60044B5B6803F00C03082BF9D102B0B3
:100CC400704700BF001002400020024008B5FFF743
:100CD4009BFF08BD08B5104B1A6842F001021A6068
:100CE40059680E4A0A405A601A6822F0847222F443
:100CF40080321A601A6822F480221A605A6822F438
:100D0400FE025A604FF41F029A60FFF7DFFF4FF0B4
:100D14000062034B9A6008BD001002400000FFF817
:100D240000ED00E01F4B5B6803F00C03042B06D0BE
:100D3400082B08D03BBB1C4A1C4B1A6026E01A4AFD
:100D44001A4B1A6022E0174A53685268C3F383436C
:100D5400023312F4803F05D1154A02FB03F3134A10
:100D6400136013E00F4A526812F4003F05D0104A92
:100D740002FB03F30D4A136008E00B4A02FB03F382
:100D84000A4A136002E0084A084B1A60054B5B6884
:100D9400C3F30313074AD35CDAB204490B68D340A4
:100DA4000B6070470010024000127A00140000200B
:100DB40000093D000400002030B583B00121042067
:100DC400FFF7F2FB2025ADF8045003238DF806301D
:100DD40010238DF80730054C01A92046FFF7F0FADF
:100DE40029462046FFF780FB03B030BD00080140D0
:100DF4000A4B1B680A4AA2FB03239B09013BB3F17C
:100E0400807F09D2074A5360F021074B83F82310EF
:100E14000023936007231360704700BF1400002071
:100E2400D34D621010E000E000ED00E0034B1860C9
:100E3400024B1B68002BFBD1704700BFBC01002094
:100E4400034B1B681BB1024A1368013B13607047D4
:100E5400BC01002008B5FFF7F3FF08BD38B5044610
:100E64000D46184800F026FA174B1B68DB68182259
:100E74000121164800F050F9FFF7BAFFFFF79CFF75
:100E8400012C04DD686800F025F8054600E005251E
:100E9400002413E020210E48FFF756FB14B94FF449
:100EA4007A7001E040F2EE20FFF7C0FF20210848ED
:100EB400FFF71AFBFA20FFF7B9FF0134A542E9DC7A
:100EC400002038BD241A00087C000020401A0008C5
:100ED400000801400A22002100F0D8BA014B18682A
:100EE400704700BF7C000020014900F0A9B800BF92
:100EF4007917000810B5044600230360436083603B
:100F040081814366C281036143618361194608227A
:100F14005C3000F00FF9054B24626362044BA3625A
:100F2400044BE362044B236310BD00BFE9120008C5
:100F34000B130008431300086713000870B56823F7
:100F44004D1E5D430E4605F1740100F0FBF80446A6
:100F540040B1002180E842000C30A06005F1680235
:100F640000F0E8F8204670BD836910B5044633BB31
:100F74008364C3640365124B124A1B6882629842FD
:100F840004BF0123836100F01FF86060204600F075
:100F94001BF8A060204600F017F80022E06004214E
:100FA4006068FFF7A7FF01220921A068FFF7A2FFED
:100FB40002221221E068FFF79DFF0123A36110BD07
:100FC400C41B0008ED0E0008F8B51C4B07461E684C
:100FD400B36913B93046FFF7C7FF4836B46873687E
:100FE400013B04D4B4F90C507DB16834F8E733689C
:100FF4000BB13668F2E704213846FFF79FFF3060F3
:101004000028F6D10C233B60F8BD4FF6FF73E38153
:101014000123A38165662560A5606560256165611E
:10102400A5610822294604F15C0000F083F8656399
:10103400A563A564E5642046F8BD00BFC41B000891
:101044002DE9F8438046894600F14804002694B10E
:10105400A5686768013F0CD4AB89012B07D9B5F9A2
:101064000E30013303D029464046C847064368354D
:10107400F0E72468EBE73046BDE8F8832DE9F84350
:10108400089C8946174602FB03F8064618B1836993
:101094000BB9FFF769FF1D4B9C4201D1746808E04E
:1010A4001B4B9C4201D1B46803E01A4B9C4208BF1D
:1010B400F468A3891B0703D523690BB1002513E04A
:1010C4002146304600F052FA0028F7D0002519E0F6
:1010D400A36819F80510013B002BA36007DB236804
:1010E4005A1C2260197001354545F1D10AE0A26904
:1010F400934201DB0A29F2D12246304600F0D0F9AE
:101104000130F0D1B5FBF7F0BDE8F883601B0008AF
:10111400801B0008A01B000807B5009313460A466D
:10112400014603480068FFF7A9FF03B05DF804FB1C
:101134007C00002003460244934202D003F8011BC2
:10114400FAE7704770B5CD1C25F0030508350C2D62
:1011540038BF0C25002D064601DBA94202D90C2319
:10116400336046E000F0A2FB234B1C681A4621467C
:10117400A1B10B685B1B0ED40B2B03D90B60CC18ED
:10118400CD501EE08C420BBF63684B6813606360F4
:1011940018BF0C4615E00C464968E9E7174C23686C
:1011A4001BB9304600F08EF820602946304600F026
:1011B40089F8431C18D0C41C24F00304A0420DD1A8
:1011C4002560304600F073FB04F10B00231D20F072
:1011D4000700C31A0ED05A42E25070BD211A30469D
:1011E40000F070F80130EBD10C233360304600F08E
:1011F4005EFB002070BD00BFB4010020B0010020E0
:1012040070B50E46054618B183690BB9FFF7ACFEFD
:10121400AB69AC6813B92846FFF7A6FE224B9C4283
:1012240001D16C6808E0214B9C4201D1AC6803E019
:101234001F4B9C4208BFEC68A3891B0701D5236997
:101244003BB92146284600F091F910B14FF0FF3028
:1012540070BD013EA36816F8011F013BA36091B164
:10126400002B04DAA269934206DB0A2904D023681E
:101274005A1C22601970EDE72246284600F010F946
:101284000130E7D1E2E7002B08DA22460A2128469A
:1012940000F006F90130D9D00A2070BD23680A2075
:1012A4005A1C2260187070BD601B0008801B000867
:1012B400A01B0008024B01461868FFF7A1BF00BF3E
:1012C4007C00002038B5064C002305460846236000
:1012D400FFF794F9431C02D1236803B12B6038BD96
:1012E400B801002010B50C46B1F90E1000F02CFB2B
:1012F4000028ABBF636DA3891B1823F48053ACBFD4
:101304006365A38110BD2DE9F0411F468B89054615
:10131400DB050C46164605D502230022B1F90E1052
:1013240000F052FAA389324623F48053A381B4F91E
:101334000E103B462846BDE8F04100F005B910B553
:101344000C46B1F90E1000F03FFA431CA38915BFF7
:10135400606523F4805343F48053A38118BFA381B1
:1013640010BDB1F90E1000F06FB910F8012B11F88F
:10137400013B012A28BF9A42F7D0D01A70470000D7
:101384002DE9F0470F4680463F48D0F800903D468F
:1013940015F8014B09EB0400407800F0080000F058
:1013A400FF0608B12F46F2E72D2C03D1BD1C7C7833
:1013B400012603E02B2C04BF7C78BD1C13B1102B39
:1013C4000AD15BE0302C57D1287800F0DF00582890
:1013D4004DD16C7810230235002E14BF4FF0004C11
:1013E4006FF0004CBCFBF3FA0027384603FB1ACC21
:1013F40009EB040E9EF801E01EF0040F01D0303C0E
:101404000BE01EF0030E1BD0BEF1010F0CBF4FF01A
:10141400370E4FF0570ECEEB0404A34210DDB7F1A4
:10142400FF3F0AD0504506D801D1644503DC03FBD5
:101434000040012701E04FF0FF3715F8014BD7E7D3
:101444007B1C0CD1002E4FF0220314BF4FF0004040
:101454006FF00040C8F800302AB9BDE8F08706B143
:10146400404272B107B1691E1160BDE8F0873024B3
:10147400002BB1D10823AFE70A23ADE7302CA3D06A
:10148400AAE7BDE8F08700BF1800002013460A460B
:10149400014602480068FFF773BF00BF7C000020CC
:1014A400F8B50F461446064618B183690BB9FFF721
:1014B4005BFD224B9C4201D1746808E0204B9C42A6
:1014C40001D1B46803E01F4B9C4208BFF468A369D0
:1014D400A360A3891A0709D523693BB1236820694E
:1014E400FDB2181A636998420FDB08E021463046C2
:1014F40000F03CF80028F1D04FF0FF30F8BD214651
:10150400304600F037F90028F6D1A368013BA36008
:1015140023685A1C22601F706269431C934204D0E2
:10152400A389DB0707D50A2D05D12146304600F0F3
:1015340021F90028E0D12846F8BD00BF601B00084F
:10154400801B0008A01B000838B5074C0546084658
:101554001146002222601A46FFF71AFA431C02D1F0
:10156400236803B12B6038BDB8010020324B70B53D
:101574001D6806460C4625B1AB6913B92846FFF72A
:10158400F3FC2E4B9C4201D16C6808E02C4B9C422E
:1015940001D1AC6803E02B4B9C4208BFEC68B4F962
:1015A4000C309AB215071DD4D00602D40922326039
:1015B4003AE0510712D5616B41B104F144039942F9
:1015C40002D0304600F074F900236363A38923F04A
:1015D4002403A3810023636023692360A38943F068
:1015E4000803A38123694BB9A38903F42073B3F5DA
:1015F400007F03D02146304600F01CF9A28912F086
:10160400010305D00023A36063695B42A36103E087
:10161400920758BF6369A36023695BB9B4F90C30BE
:1016240003F0800080B230B143F04003A3814FF057
:10163400FF3070BD002070BD7C000020601B0008DE
:10164400801B0008A01B000838B5064C0023054683
:1016540008462360FFF7CEF9431C02D1236803B187
:101664002B6038BDB80100208A892DE9F041054678
:1016740010070C4659D44B68002B02DC0B6C002B72
:1016840017DDE66AAEB102F48052002392B22F68ED
:101694002B600AB1606D15E0216A01232846B0472A
:1016A400411C0FD12B686BB11D2B01D0162B03D11C
:1016B4002F600020BDE8F081A38943F04003A3819B
:1016C400BDE8F081A3895A0705D56368C01A636B26
:1016D4000BB1236CC01A00230246E66A216A28462D
:1016E400B047431CA38906D129681D2939D8204A4B
:1016F400CA40D60735D5002262602269D904226027
:1017040004D5421C01D12B6803B96065616B2F605D
:101714000029CED004F14403994202D0284600F0B7
:10172400C7F800206063BDE8F0810F69002FC0D0C6
:1017340093070E680CBF4B690023C7EB06080F60C4
:101744008B6002E00744C0EB0808B8F1000FB0DD7D
:1017540043463A46216A2846A66AB0470028F1DC87
:10176400A38943F04003A3814FF0FF30BDE8F0812B
:101774000100402038B50B6905460C46DBB118B1B1
:1017840083690BB9FFF7F0FB0C4B9C4201D16C68E9
:1017940008E00B4B9C4201D1AC6803E0094B9C422E
:1017A40008BFEC68B4F90C302BB121462846BDE8DB
:1017B4003840FFF759BF002038BD00BF601B000848
:1017C400801B0008A01B000838B5074C05460846D6
:1017D4001146002222601A46FFF7C6F8431C02D1C4
:1017E400236803B12B6038BDB801002070B50E46E4
:1017F400B1F90E1090B0002914461D4606DA0023F4
:101804002B60B3891A060ED540230EE001AA00F01E
:10181400ADF80028F3DB029A02F47042A2F50053FB
:101824005A425A412A604FF480630020236010B06A
:1018340070BD00008B8973B59E0705460C4610D415
:1018440001AB6A46FFF7D2FF009906462846FFF728
:1018540079FC68B9B4F90C309A0522D443F0020338
:10186400A38104F14703236023610123636118E02A
:101874000D4BAB62A389206043F08003A381009BDE
:1018840020616361019B4BB1B4F90E10284600F04E
:101894007FF818B1A38943F00103A381A0893043E1
:1018A400A08102B070BD00BFED0E00087047704704
:1018B40038B50546002944D051F8043C0C1F002BD0
:1018C400B8BFE418FFF7F2FF1E4A1368114613B9B4
:1018D4006360146030E0A3420DD92268A0188342EB
:1018E40001BF18685B681218226063600C6023E013
:1018F400A24203D813465A68002AF9D11868191865
:10190400A1420BD12168014458188242196013D1B5
:1019140010685268014419605A600DE002D90C2322
:101924002B6009E021686018824201BF1068526888
:101934000918216062605C602846BDE83840FFF702
:10194400B6BF38BDB401002038B5074C054608467B
:101954001146002222601A46FEF78CFF431C02D176
:10196400236803B12B6038BDB801002038B5074C9B
:1019740000230546084611462360FFF787F8431CF9
:1019840002D1236803B12B6038BD00BFB801002029
:1019940038B5064C0023054608462360FFF784F853
:1019A400431C02D1236803B12B6038BDB801002069
:1019B4002E2E2F73797374656D2F7372632F737466
:1019C4006D333266312D7374647065726970682F7B
:1019D40073746D3332663130785F6770696F2E636C
:1019E400000000002E2E2F73797374656D2F7372AF
:1019F400632F73746D333266312D73746470657242
:101A04006970682F73746D3332663130785F726336
:101A1400632E63003A7474002F746D70000000002C
:101A24005374616E64617264206F75747075742090
:101A34006D6573736167652E000000005374616EF9
:101A440064617264206572726F72206D6573736174
:101A540067652E0A0000000000202020202020209E
:101A6400202028282828282020202020202020204A
:101A7400202020202020202020881010101010105A
:101A840010101010101010101004040404040404A6
:101A94000404041010101010101041414141414140
:101AA4000101010101010101010101010101010122
:101AB4000101010110101010101042424242424232
:101AC40002020202020202020202020202020202F2
:101AD400020202021010101020000000000000009A
:101AE40000000000000000000000000000000000F2
:101AF40000000000000000000000000000000000E2
:101B040000000000000000000000000000000000D1
:101B140000000000000000000000000000000000C1
:101B240000000000000000000000000000000000B1
:101B340000000000000000000000000000000000A1
:101B44000000000000000000000000000000000091
:101B54000000000000000000000000000000000081
:101B64000000000000000000000000000000000071
:101B74000000000000000000000000000000000061
:101B84000000000000000000000000000000000051
:101B94000000000000000000000000000000000041
:101BA4000000000000000000000000000000000031
:101BB40000000000000000000000000043000000DE
:041BC4001C000020E1
:101BC80078563412000000000000000001020304EF
:101BD8000607080900A24A045C1A00080000000071
:101BE800601B0008801B0008A01B00080000000004
:101BF800000000000000000000000000C01B0008FA
:101C080000000000000000000000000000000000CC
:101C180000000000000000000000000000000000BC
:101C280000000000000000000000000000000000AC
:101C38000000000000000000000000001C00002060
:041C48003254769804
:04000005080001E509
:00000001FF
